:020000040800F2
:10000000A0470020DD01000859050008510500083F
:10001000550500080F030008BD0900080000000096
:100020000000000000000000000000004501000882
:100030003104000800000000890100089523000831
:10004000F7010008F7010008F7010008F7010008B0
:10005000F7010008F7010008F7010008F7010008A0
:10006000F7010008F7010008F7010008F701000890
:10007000F7010008F7010008F7010008F701000880
:10008000F7010008F7010008F7010008F701000870
:10009000F7010008F7010008F7010008F701000860
:1000A000F7010008F7010008F7010008F701000850
:1000B000F7010008F7010008F7010008F701000840
:1000C000F7010008F7010008F7010008F701000830
:1000D000F7010008F7010008F7010008F701000820
:1000E000F7010008F7010008F7010008F701000810
:1000F000F7010008F7010008F7010008F701000800
:10010000F7010008F7010008F7010008F7010008EF
:10011000F7010008F7010008F7010008F7010008DF
:10012000F7010008F7010008F7010008F7010008CF
:10013000DFF80CD000F0BAF800480047A91000081A
:10014000A0470020224B19680868B0E8F00F80F340
:100150000988BFF36F8F4FF0000080F311884EF0D5
:100160000D0E70470000000006480068006880F32C
:10017000088862B661B6BFF34F8FBFF36F8F00DFA1
:1001800000BF00BF08ED00E0EFF30980BFF36F8F01
:100190000F4B1A6820E9F00F106008B54FF0BF0050
:1001A00080F31188BFF34F8FBFF36F8F02F0A8F871
:1001B0004FF0000080F31188BDE808401968086816
:1001C000B0E8F00F80F30988BFF36F8F704700BF6E
:1001D0003C000020EFF30580704700000648804790
:1001E00006480047FEE7FEE7FEE7FEE7FEE7FEE71C
:1001F000FEE7FEE7FEE7FEE7CD0700083101000855
:1002000040EA01039B0703D009E008C9121F08C098
:10021000042AFAD203E011F8013B00F8013B521E18
:10022000F9D27047D2B201E000F8012B491EFBD28F
:1002300070470022F6E710B513460A4604461946F1
:10024000FFF7F0FF204610BD2DE9F05F05460020C6
:1002500092469B4688460646814640241BE0284637
:1002600041464746224600F042F853465A46C01AD5
:10027000914110D311461846224600F029F82D1A54
:1002800067EB01084F4622460120002100F020F8CC
:1002900017EB00094E41201EA4F10104DFDC4846A3
:1002A00031462A464346BDE8F09F0000064C074D04
:1002B00006E0E06840F0010394E807009847103436
:1002C000AC42F6D3FFF738FF7C2E00089C2E0008C6
:1002D000202A04DB203A00FA02F100207047914006
:1002E000C2F1200320FA03F3194390407047202AFB
:1002F00004DB203A21FA02F00021704721FA02F3D0
:10030000D040C2F12002914008431946704700BF17
:10031000FEE7000024E04FF0FF311248006802F0D1
:1003200019FA114911A000F04BFB4FF0FF311448AE
:10033000006802F00FFABC2000F094FD00231A467A
:1003400019460F48006802F0B3F800231A46194610
:100350000C48006802F0ACF84FF47A7001F0E8FE47
:10036000D9E70000140000203E2E000877656C637A
:100370006F6D6520746F205B25735D0D0A000000B2
:10038000100000201800002020E04FF0FF3110483E
:10039000006802F0DFF90F490FA000F011FB3220D6
:1003A00001F0C6FE4FF0FF311048006802F0D2F9AC
:1003B000C72000F057FD00231A4619460B48006875
:1003C00002F076F84FF47A7001F0B2FEDDE700003B
:1003D00018000020492E000877656C636F6D65205A
:1003E000746F205B25735D0D0A0000001000002073
:1003F0000EE0084908A000F0E3FA00231A46194667
:100400000A48006802F054F842F2107001F090FEC1
:10041000EFE70000542E000877656C636F6D652070
:10042000746F205B25735D0D0A000000140000202E
:1004300070472DE9F04102460025002600200023E8
:100440000024002791F803C00CF00F0591F803C0B9
:100450000CF0100CBCF1000F03D091F802C04CEA74
:10046000050591F800C0BCF1000F31D014680020E0
:100470002BE04FF0010C0CFA00F3B1F800C00CEACD
:1004800003069E4220D183004FF00F0C0CFA03F7B5
:10049000BC4305FA03FC4CEA040491F803C0BCF128
:1004A000280F06D14FF0010C0CFA00FCC2F814C062
:1004B0000AE091F803C0BCF1480F05D14FF0010CE0
:1004C0000CFA00FCC2F810C0401C0828D1D31460FC
:1004D000B1F800C0BCF1FF0F34DD546800202EE0FD
:1004E00000F1080C4FF0010808FA0CF3B1F800C055
:1004F0000CEA03069E4221D183004FF00F0C0CFA48
:1005000003F7BC4305FA03FC4CEA040491F803C06A
:10051000BCF1280F05D100F1080C08FA0CF8C2F85C
:10052000148091F803C0BCF1480F07D100F1080C0A
:100530004FF0010808FA0CF8C2F81080401C082897
:10054000CED35460BDE8F0814161704701617047CE
:1005500000BFFEE700BFFEE77047000029B1064A72
:1005600092690243044B9A6104E0034A9269824310
:10057000014B9A61704700000010024030B5002125
:100580000022002400232D4D6D6805F00C0121B1DF
:10059000042905D0082923D105E0294D056022E072
:1005A000274D05601FE0254D6D6805F47012234D41
:1005B0006D6805F48034022505EB92421CB9214D8B
:1005C000554305600BE01D4D6D6805F400351DB108
:1005D0001C4D5543056002E0194D5543056002E08E
:1005E000174D056000BF00BF144D6D6805F0F001A8
:1005F0000909154D6B5C0568DD4045600F4D6D6860
:1006000005F4E061090A104D6B5C4568DD408560CA
:100610000A4D6D6805F46051C90A0B4D6B5C456865
:10062000DD40C560054D6D6805F44041890B074DFF
:100630006B5CC568B5FBF3F5056130BD0010024089
:1006400000127A0000093D00280000203800002038
:1006500021B1028842F04002028004E002884FF695
:10066000BF731A40028070470246002013890B4076
:100670000BB1012000E000207047014688897047D7
:100680008181704710B50022028802F441520B8824
:100690004C8823438C882343CC8823430C892343F1
:1006A0004C8923438C892343CC8923431A430280FA
:1006B000838B4FF2FF74234083830B8A038210BD28
:1006C00010B50446E1B2064800F074F900BF4021BD
:1006D000034800F0F5F80128F9D1204610BD0000CC
:1006E0000038014010B500F001F810BD0CB5002035
:1006F000019000903348006840F480303149086030
:1007000000BF3048006800F4003000900198401CA1
:100710000190009818B90198B0F5A06FF1D129485F
:10072000006800F4003010B10120009001E00020CA
:1007300000900098012843D12348006840F0100041
:10074000214908600846006820F003000860084658
:10075000006840F0020008601A4840681949486083
:100760000846406848600846406840F48060486039
:100770000846406820F47C1048600846406840F411
:10078000E81048600846006840F08070086000BFCC
:100790000C48006800F000700028F9D00948406853
:1007A00020F00300074948600846406840F0020016
:1007B000486000BF0348406800F00C000828F9D1E9
:1007C0000CBD0000001002400020024010B513488C
:1007D000006840F00100114908600846406810496F
:1007E00008400E494860084600680E4908400B4919
:1007F00008600846006820F48020086008464068C9
:1008000020F4FE0048604FF41F008860FFF76AFF85
:100810004FF000600449086010BD00000010024065
:100820000000FFF8FFFFF6FE08ED00E021B182892D
:1008300042F40052828104E082894DF6FF731A402F
:100840008281704700B585B0012144F20500FFF7B1
:1008500085FE4FF40070ADF8100018208DF81300DD
:1008600003208DF8120004A91348FFF7E2FD4FF4AE
:100870008060ADF8100004208DF8130004A90E4824
:10088000FFF7D7FD4FF4E13000900020ADF80C00E9
:100890000C20ADF80A000020ADF80800ADF8060005
:1008A000ADF804006946054800F018F80121034836
:1008B000FFF7BCFF05B000BD000801400038014053
:1008C00002460020B1F5007F00D100BF13880B4025
:1008D0000BB1012000E00020704700002DE9F04737
:1008E00086B005460E460024A24600BFA14600275A
:1008F000B08900B100BF2F462C8A4CF6FF7004402F
:10090000F08804432C82AC894EF6F3100440B08882
:1009100031890843718908430443AC81AC8A4FF69E
:10092000FF400440B0890443AC8201A8FFF726FED3
:100930001F48874202D1DDF810A001E0DDF80CA0CD
:10094000A88900F4004040B10AEBCA0000EB0A108D
:1009500031684900B0FBF1F807E00AEBCA0000EB90
:100960000A1031688900B0FBF1F86420B8FBF0F0A0
:1009700004012009642101FB1089A88900F40040CA
:1009800040B1322000EBC900B0FBF1F000F00700ED
:10099000044308E0322000EB09106421B0FBF1F0C1
:1009A00000F00F0004432C8106B0BDE8F087000082
:1009B00000380140C1F308028280704700BFFEE7A3
:1009C0000FB4054B10B503A9044A029800F018F8BB
:1009D00010BC5DF814FB0000310F0008200000205F
:1009E00002E008C8121F08C1002AFAD170477047F8
:1009F000002001E001C1121F002AFBD17047000056
:100A00002DE9FF4F8DB00F460546002606E025284C
:100A10000BD0DDE90F1290476D1C761C287800285A
:100A2000F5D111B03046BDE8F08F0024A246A146B2
:100A30000122EC4900E0044315F8013F203B02FA93
:100A400003F00842F7D128782A2810D06FF02F023F
:100A50002878A0F13001092914D80AEB8A0102EBA9
:100A6000410144F0020400EB010A6D1CF0E701CFE4
:100A70005FEA000A03D544F40054CAF1000A44F0C6
:100A800002046D1C28782E2817D115F8010F44F0A8
:100A900004042A280ED06FF02F022878A0F130012C
:100AA00009290AD809EB890102EB410100EB010990
:100AB0006D1CF2E757F8049B6D1C28786C280FD04A
:100AC00006DC4C2817D068280DD06A2814D104E021
:100AD000742810D07A280FD10DE044F400140AE0F5
:100AE00044F4801401E044F440146978814202D156
:100AF00004F580146D1C6D1C2A786E2A1FD00CDC46
:100B0000632A31D004DC002A8BD0582A11D1A3E00B
:100B1000642A68D0692A0CD165E0732A2ED004DCDF
:100B20006F2A73D0702A04D19BE0752A6FD0782A7F
:100B30006ED01046DDE90F129047761C50E1C4F3E9
:100B40000250022806D0032809D0042801CF09D07A
:100B5000066045E101CFF117C0E9006140E101CF36
:100B600006803DE106703BE117F8040B8DF80000AC
:100B700000208DF80100EB46012003E057F804BB8C
:100B80004FF0FF3061074FF0000102D40DE008F193
:100B90000101884649450FDA8045F8DB1BF808104B
:100BA0000029F4D108E008F1010188468142FADB0E
:100BB0001BF808100029F6D1DDE90F23AAEB080085
:100BC0008146214600F036F9304400EB080604E087
:100BD000DDE90F121BF8010B9047B8F10108F7D2BD
:100BE00021464846F7E00A21C4F302534FF0000BB8
:100BF0000891022B04D001CFC117032B09D00AE0C2
:100C0000FF1D27F00707F7E8020108E032E01FE0C8
:100C100020E000B2C117042B01D140B2C117031E5E
:100C200071F1000307DA4FF0000CD0EB0C006CEB15
:100C300001012D2302E0230504D52B238DF8243058
:100C4000012303E0E30701D02023F7E7984658E0AB
:100C50000A2110E010210EE010204FF0000B089048
:100C60000CE010214FF0000B44F004044FF0080991
:100C7000089103E008214FF0000B0891C4F30253E0
:100C8000022B04D001CF0021032B06D006E0FF1D6C
:100C900027F00707F7E8020103E080B2042B00D138
:100CA000C0B24FF0000823072BD5702A07D0DDF81B
:100CB00020C08CF0100C5CEA0B0C05D00EE0402339
:100CC0008DF82430012308E050EA010306D03023D8
:100CD0008DF824308DF8252002239846DDF820C0B9
:100CE0008CF0080C5CEA0B0C0BD150EA010301D12B
:100CF000630706D530238DF824304FF00108A9F1A1
:100D00000109582A04D038A20B9208AA0A920BE0D3
:100D10003AA2F9E75B46089AFFF796FA0B9B9B5CB1
:100D20000A9A521E0A92137050EA0102F2D10A98EE
:100D3000ADEB000000F1200B600702D524F48034F5
:100D400001E04FF00109D94502DDA9EB0B0000E0FD
:100D5000002000EB0B0141440890AAEB010AE003DC
:100D600006D4DDE90F232146504600F063F806441F
:100D70004FF0000908E009A911F80900DDE90F1298
:100D8000904709F10109761CC145F4DBE0030CD55D
:100D9000DDE90F232146504600F04CF8064404E0FC
:100DA000DDE90F1230209047761C0899481E089004
:100DB0000029F5DC08E00A980A990078491C0A9194
:100DC000DDE90F129047761CBBF10001ABF1010B7E
:100DD000F1DC21465046DDE90F2300F019F8064406
:100DE0006D1C1BE6092801003031323334353637AB
:100DF0003839616263646566000000003031323367
:100E00003435363738394142434445460000000006
:100E10002DE9F041044600251E461746880404D4F7
:100E200005E039462020B0476D1C641EF9D52846E0
:100E3000BDE8F0812DE9F041044600251E469046AC
:100E4000C80301D5302700E02027880404D505E039
:100E500041463846B0476D1C641EF9D52846BDE8AA
:100E6000F081000010B50446074804600749026895
:100E700007A0FFF7A5FD0D48006800F061F80C48D9
:100E8000006800F05DF810BD1C000020362E000840
:100E90005B25735D2C746F6D5F676C6F62616C2096
:100EA00076616C75653A2025640D0A000400002007
:100EB000000000202DE9F04707463E46174800682D
:100EC000864201D1002426E001F0BEF8756914487D
:100ED000D0F800901348D0F8008001F0C7F84D45D5
:100EE00001D0454501D1022415E00F4885420BD1C0
:100EF000B06A38B996F85000012801D102240AE0FE
:100F0000032408E0022406E00848854200D00DB919
:100F1000042400E001242046BDE8F0873C000020C6
:100F20004000002044000020600100204C0100200F
:100F300070B504460D462046FFF7C2FB70BD0000A9
:100F40002DE9F0410646304600F07EFA074630466D
:100F5000FFF7B0FF044639461AA0FFF731FD24B968
:100F600039461EA0FFF72CFD21E0012C04D13946A3
:100F700021A0FFF725FD1AE0022C04D1394625A057
:100F8000FFF71EFD13E0032C04D1394628A0FFF71C
:100F900017FD0CE0042C04D139462DA0FFF710FDFD
:100FA00005E0052C03D1394630A0FFF709FD304696
:100FB00001F000F80546A90033A0FFF701FDBDE8E8
:100FC000F081000063757272656E745F7461736B9B
:100FD000206E616D653A2025730D0A00257320741B
:100FE00061736B5F737461747573203A2065527519
:100FF0006E6E696E670D0A002573207461736B5FF6
:10100000737461747573203A206552656164790D5B
:101010000A0000002573207461736B5F7374617440
:101020007573203A2065426C6F636B65640D0A002E
:101030002573207461736B5F737461747573203AE8
:10104000206553757370656E6465640D0A00000059
:101050002573207461736B5F737461747573203AC8
:10106000206544656C657465640D0A002573207401
:1010700061736B5F737461747573203A2065496E98
:1010800076616C69640D0A0052656D61696E696E06
:101090006720737461636B207370616365203A200D
:1010A000256C640D0A00000010B586B0FFF7CAFB7E
:1010B00000F0A4F901A8FFF761FA12490198B0FB0A
:1010C000F1F4214610A0FFF77BFC0E490298B0FB1B
:1010D000F1F4214614A0FFF773FC0A490398B0FB12
:1010E000F1F4214617A0FFF76BFC06490498B0FB0A
:1010F000F1F421461AA0FFF763FC00F03FF800204E
:1011000006B010BD40420F000D0A535953434C4BDB
:101110005F4672657175656E6379203D2025642098
:101120004D487A0A000000000D0A48434C4B5F46C8
:1011300072657175656E6379203D202564204D4888
:101140007A0A00000D0A50434C4B315F46726571BC
:1011500075656E6379203D202564204D487A0A002C
:101160000D0A50434C4B325F4672657175656E6374
:1011700079203D202564204D487A0A001CB5374966
:1011800037A0FFF71DFC012001F024F93949086060
:1011900003220021012001F02EF9374908600322C3
:1011A0000021012001F027F9344908603448012169
:1011B00000234FF4FA72CDE9001032A1344801F057
:1011C0008FFB0446012C03D032A0FFF7F9FB02E0AD
:1011D00038A0FFF7F5FB4148022100234FF4FA72D3
:1011E000CDE900103EA1424801F07AFB0446012CF3
:1011F00003D040A0FFF7E4FB02E047A0FFF7E0FBCD
:101200005048032100234FF4FA72CDE900104EA19B
:10121000504801F065FB0446012C03D04EA0FFF7B7
:10122000CFFB02E054A0FFF7CBFB5D4801231A4639
:101230004FF4FA6100905BA001F080FD5E49086008
:101240000846006818B95DA0FFF7BAFB02E063A08A
:10125000FFF7B6FB01F014F800201CBD5F2E00085C
:1012600077656C636F6D6520746F205B25735D0D12
:101270000A000000100000201400002018000020C8
:1012800000000020446174615F7061636B000000C6
:1012900015030008446174615F7061636B207461C1
:1012A000736B20637265617465206661696C656447
:1012B0000D0A0000446174615F7061636B207461AA
:1012C000736B206372656174652073756363657306
:1012D0007366756C6C790D0A000000000400002034
:1012E000446174615F7472616E73666572000000C0
:1012F00089030008446174615F7472616E7366658E
:1013000072207461736B206372656174652066611D
:10131000696C65640D0A0000446174615F747261F8
:101320006E73666572207461736B2063726561749D
:1013300065207375636365737366756C6C790D0AEC
:101340000000000008000020446174615F73656D57
:1013500061000000F1030008446174615F73656D12
:1013600061207461736B20637265617465206661CE
:10137000696C65640D0A0000446174615F73656D9A
:1013800061207461736B206372656174652073758D
:10139000636365737366756C6C790D0A00000000F9
:1013A000651F0008746573743154696D65725F4818
:1013B000616E646C650000000C0000204661696C81
:1013C000656420746F20746573743154696D65723F
:1013D0005F48616E646C650D0A000000737563639D
:1013E00065737320746F20746573743154696D650F
:1013F000725F48616E646C650D0A000010B500F004
:101400000DFD00F05DFD0649884204D105A0FFF7FF
:10141000D7FA012010BD08A0FFF7D2FA0020F9E7A3
:101420001540EF00466C617368494420537563634F
:101430006573730D0A000000466C617368494420AF
:101440006661696C0D0A0000014611B90348006825
:1014500000E00846024602F1340070473C000020DC
:101460002DE9F04105460E461C4807681C480068F7
:10147000001D00F08BFD50B91948006890F82C1041
:101480000120884017490968814316480160681C9B
:1014900038B936B112480168091D134800F0C8FD7B
:1014A0001AE07C190E4800684460BC4207D20C4820
:1014B0000168091D0D48006800F0A0FD0CE0084817
:1014C0000168091D0A48006800F098FD0948006895
:1014D000844201D207480460BDE8F081500000203A
:1014E0003C00002054000020600100204400002047
:1014F000400000206C00002010B5044600F0A4FD60
:1015000023480068401C224908602248006840B90E
:10151000204804600846006801280DD100F0C8F991
:101520000AE01D48006838B91A480068C06AE16AD4
:10153000884201D81748046018480068401C1749C1
:10154000086094F82C100120884015490968084368
:1015500013490860E16A01EB8101124A02EB810044
:10156000211D00F065FD00F081FD0B48006868B1A9
:1015700008480068C06AE16A884207D24FF080508C
:1015800009490860BFF34F8FBFF36F8F10BD000094
:101590004C0000203C000020580000206800002083
:1015A00054000020AC00002004ED00E010B500F075
:1015B0004BFD0C48006890B90B4800F00FFD0B483C
:1015C00000F00CFD08480A4908600848094908600D
:1015D00000220C21042000F00EFF0249086000F0F8
:1015E00045FD10BD8000002074010020880100200E
:1015F000780000207C00002010B516E000F024FDEB
:101600000C48C068C468201D00F0C0FC0A4800688F
:10161000401E0949086009480068401E07490860E3
:1016200000F024FD204600F05FF804480068002820
:10163000E4D110BD4C0100204C00002048000020E7
:1016400070B504460D46206C70B1216CE068014411
:10165000E160D4E90210884201D32168E1602846A4
:10166000226CE168FEF7CCFD70BD2DE9F041044627
:101670000F4615464FF00008A66B206C48B920684D
:1016800000282CD1A06801F0FFF980460020A0605E
:1016900025E07DB93946226C6068FEF7B1FD216C0A
:1016A000606808446060D4E90101884217D320686B
:1016B000606014E03946226CE068FEF7A1FD216C01
:1016C000E068411AE1602168E068884203D2216C39
:1016D000A068411AE160022D01D106B1761E701C8E
:1016E000A0634046BDE8F08110B50446206B00F0D1
:1016F000CDFC204600F0CAFC10BD01464A6A22B16A
:101700000A6B1268C2F1050000E00020704700007B
:101710000146084A126812680AB9012200E0002254
:101720000A600A6822B9034A1268D268106800E0A9
:1017300000207047780000200A4A22F007000A4A79
:1017400010600022084B5A6044F2F832074B5A608E
:1017500000221A60014644F2F8324A601A460A60D2
:1017600070470000A40100208C000020940000209D
:1017700000BFFFF741FF064800680128F9D94FF084
:10178000805004490860BFF34F8FBFF36F8FF0E7BD
:10179000AC00002004ED00E010B5044654B1002078
:1017A000A06020600021E16000231A46194620460F
:1017B00000F07EFE10BD2DE9F04106460D461746AD
:1017C0009846069C0DB9246000E02760E663256416
:1017D0000121204600F02CFEBDE8F0812DE9F05FEC
:1017E00081460E4690469A460A9F0C9C4FEA880115
:1017F000A522206BFEF716FDA8F10100216B01EB7D
:10180000800B2BF0070B86B1002507E0715D04F11A
:1018100034004155705D00B902E06D1C102DF5D308
:1018200000BF00214320015502E0002084F834006D
:10183000052F00D30427E76267640020A064201D01
:1018400000F0D9FB04F1180000F0D5FB2461C7F1CA
:101850000500A06164620020E06484F850005246F4
:101860004946584600F0C8FA20600B9808B10B981A
:101870000460BDE8F09F2DE9F04705460E46174687
:101880009846DDE908948CB1FFF790FE2560A661CB
:10189000C4F81C80C4F82090201D00F0ACFB2FB1D0
:1018A00094F8240040F0040084F82400BDE8F08798
:1018B00010B5002407E004EB84010F4A02EB81001D
:1018C00000F08CFB641C052CF5D30C4800F086FB63
:1018D0000B4800F083FB0B4800F080FB0A4800F047
:1018E0007DFB0A4800F07AFB044809490860044877
:1018F0000849086010BD0000AC0000201001002065
:1019000024010020380100204C010020600100204B
:1019100040000020440000202DE9F04104460D461F
:1019200016461F464FF0000865602461B5420CD88A
:10193000F01BA169884202D34FF0010811E0211D7C
:101940000948006800F05AFB0BE0BE4204D2BD42D9
:1019500002D34FF0010804E0211D0448006800F0A4
:101960004DFB4046BDE8F0817C000020780000205F
:1019700070B5054600F068FBA86B08B9012400E0CB
:10198000002400F073FB204670BD70B5054600F0E2
:101990005BFBA86BE96B884201D1012400E00024C5
:1019A00000F064FB204670BDF8B505460E461448AD
:1019B0000068C068C468201D00F0E8FA94F82400AC
:1019C00000F0040088B1A06941192B463246204638
:1019D000FFF7A2FF78B1002003462A460146009097
:1019E000204601F0E5F9074605E094F8240020F0D0
:1019F000010084F824002046216A8847F8BD0000D1
:101A00007800002070B586B06DE0039800286ADB8E
:101A1000059C606908B9012000E0002010B9201D74
:101A200000F0B4FA02A800F0BFF8054603980A28AF
:101A300057D2DFE800F00905072D354606082E3697
:101A400000BF00BF00BF00BF94F8240040F00100B9
:101A500084F824000498A269811803462A46204687
:101A6000FFF75AFF98B12046216A884794F824006E
:101A700000F0040058B1002000900498A1694218B9
:101A800000231946204601F093F9064600BF29E0DD
:101A900000BF94F8240020F0010084F8240021E025
:101AA00000BF94F8240040F0010084F8240004985A
:101AB000A061A06941192B462A462046FFF72CFF5A
:101AC00010E094F8240000F0020018B9204600F05D
:101AD000DDFA05E094F8240020F0010084F82400E9
:101AE00000E000BF00BF002203A90448006800F026
:101AF000AFFD002889D106B070BD00008000002035
:101B0000F8B505460C4600F0F3FB684600F04CF8CB
:101B10000646009820BB44B9B54206D801F09AF8B1
:101B200031462846FFF740FF1CE03CB10E480068F4
:101B3000006808B9012000E000200446A91B2246E5
:101B40000A48006800F0CEFA01F084F850B94FF06E
:101B5000805007490860BFF34F8FBFF36F8F01E0DC
:101B600001F078F8F8BD00007C0000208000002023
:101B700004ED00E00A490968096809B9012100E09B
:101B8000002121B14FF0FF31064A116006E00449FF
:101B90000968C968C868034A416811607047000055
:101BA000400000206C00002070B5044600F0D8FE14
:101BB000054607480068854204D200F00BF8012072
:101BC000206001E00020206001480560284670BDCB
:101BD000880000202DE9F84328E01E480068C0680E
:101BE00005681C480068C068C468201D00F0CEF974
:101BF0002046216A884794F8240000F00400A8B128
:101C0000A0694619AE4207D966602461211D1148BA
:101C1000006800F0F3F909E0002003462A46014677
:101C20000090204601F0C4F8804600BF09480068D3
:101C3000006808B9012000E000200028CDD0054848
:101C40000768054800680349086003480760BDE865
:101C5000F8830000780000207C000020024600216C
:101C600001E0521C491C1078A528FAD0890888B2D6
:101C7000704700BFBF2080F31188BFF34F8FBFF3C1
:101C80006F8F00BF00BFFEE708B500BF6846FFF7D3
:101C90003FFD044620460099FFF732FFFFF7B2FEF2
:101CA000F4E770B5044600F0CFF994F9455010E020
:101CB000606A08B9012000E0002038B904F124006E
:101CC00000F088FF18B100F059FA00E003E0681E48
:101CD00045B2002DECDC00BFFF2084F8450000F089
:101CE000C5F900F0B1F994F9445010E0206908B941
:101CF000012000E0002048B904F1100000F06AFF64
:101D000008B100F03BFA681E45B200E001E0002D8A
:101D1000ECDC00BFFF2084F8440000F0A7F970BDA0
:101D20002DE9F04104464FF0000800F0E1FA2648A2
:101D3000006820B9FFF700FD01202349086044B185
:101D4000083404F0070020B104F00700C0F10800D7
:101D50000444002C32D044F2F83084422ED21B4F7F
:101D60003846056801E02F462D686868A04202D217
:101D700028680028F7D1164885421FD0386800F13E
:101D80000808286838606868001B102810D92E19C8
:101D90006868001B70606C6071680C4800E0006847
:101DA000026852688A42FAD302683260066000BF55
:101DB000084968680968081A0649086000F04AFF7F
:101DC0004046BDE8F0810000A00000208C0000200B
:101DD000940000209C0000200648006830B10549AE
:101DE000096801F14800896C491C016001480068DC
:101DF000704700003C000020001F4FF0807303601C
:101E0000001F21F001030360001F034B036014381F
:101E10000260203870470000731C000800B587B0CE
:101E2000012141F20500FEF799FB1020ADF81800E2
:101E30008DF81B0003208DF81A0006A91E48FEF736
:101E4000F8FA10211C48FEF781FBE020ADF81800DD
:101E500018208DF81B0003208DF81A0006A91648DB
:101E6000FEF7E7FAE0211448FEF770FB0020ADF81A
:101E700004004FF48270ADF806000020ADF80800B1
:101E80000220ADF80A000120ADF80C004002ADF8C8
:101E90000E000820ADF810000020ADF81200072059
:101EA000ADF8140001A90548FEF7ECFB0121034839
:101EB000FEF7CEFB07B000BD000801400030014036
:101EC0002DE9F041002400250026002710211148AB
:101ED000FEF73AFB9F2000F029F8A52000F026F835
:101EE0000546A52000F022F80646A52000F01EF8C1
:101EF000074610210748FEF729FB280440EA062080
:101F000040EA07042246044904A0FEF759FD204692
:101F1000BDE8F081000801406D2E00085B25735D6F
:101F20003A203078253036580D0A000010B50446A6
:101F300000BF02210A48FEF797FB0028F9D021468E
:101F40000748FEF79DFB00BF01210548FEF78CFB0B
:101F50000028F9D00248FEF790FBC0B210BD000087
:101F60000030014010B50446024903A0FEF728FDE9
:101F700010BD00001C2E000877656C636F6D652036
:101F8000746F205B25735D0D0A00000001460A692D
:101F9000D1E901309860D1E9010358605068884266
:101FA00001D188685060002008611068401E1060F0
:101FB000106870472DE9F041044614B906480068DE
:101FC00000E0204607463D6B2846FFF747FE0646E1
:101FD0003046BDE8F08100003C00002000F108011F
:101FE00041604FF0FF31816000F10801C160016183
:101FF00000210160704700210161704710B5024661
:102000000B685C1C0CB9106907E002F1080000E0E5
:102010004068446824689C42FAD944684C604C6823
:10202000A160886041600A611468641C146010BD7E
:1020300042684A6093688B60936859609160086158
:1020400003685B1C0360704700BFBF2080F31188EA
:10205000BFF34F8FBFF36F8F00BF03480068401C72
:102060000149086070470000A4000020064800688D
:10207000401E054908600846006820B9002080F32A
:10208000118800BF00BF7047A400002070B506464D
:102090003546B6B1083D2C4600F02AF9616809487A
:1020A00000E00068026852688A42FAD3026822603F
:1020B000046005496068096808440349086000F045
:1020C000C9FD70BD8C0000209C00002000204FF056
:1020D000E021086188610248486107200861704773
:1020E0003F1901002DE9F04105460E4617462C46E2
:1020F000FFF7AAFF94F94400401C10B9002084F8AF
:10210000440094F94500401C10B9002084F84500B3
:10211000FFF7ACFFA06B28B93A46314604F1240022
:1021200000F042F82046FFF7BCFDBDE8F08100005A
:1021300070B50446002544B100F0DAF800212046CD
:10214000FFF78EF900F086FD05463DB94FF080504F
:1021500003490860BFF34F8FBFF36F8F70BD00005E
:1021600004ED00E003490968016003490968416022
:102170007047000064000020500000200120014949
:10218000086070476000002070B505460C460548A1
:10219000016818312846FFF731FF01212046FFF77B
:1021A0005FF970BD3C00002070B506460D46144630
:1021B0000648016818313046FFF73AFF0CB14FF07E
:1021C000FF3521462846FFF74BF970BD3C00002043
:1021D0002DE9F04706460F4634464FF00109002E20
:1021E00047D0606CB84201D23D4600E0656CE06AC1
:1021F000A8423ED0A06C01283BD1D4F82C80E562E7
:10220000A06900F0004010B9C5F10500A06108EB1D
:102210008801194A02EB81016069884201D10120DD
:1022200000E0002028B3201DFFF7B0FE78B9E06A77
:1022300000EB8000104951F8200040B994F82C10B0
:10224000012088400D49096881430C48016094F8D9
:102250002C10012088400949096808430749086093
:10226000E16A01EB8101044A02EB8100211DFFF7C5
:10227000DFFEBDE8F0870000AC0000205400002025
:102280001CB5144800210B468022CDE9001012A194
:10229000134800F025FB0446012C02D100F06AFD32
:1022A0000446012C14D100BFBF2080F31188BFF376
:1022B0004F8FBFF36F8F00BF4FF0FF3009490860A9
:1022C00001200949086000200849086000F048F82A
:1022D0001CBD00007000002049444C450000000077
:1022E000711700086C0000205800002050000020EA
:1022F00002480068401C01490860704774000020D3
:102300001248006818B10120114908601DE0002042
:102310000F4908600F480068B0FA80F0C0F11F0153
:1023200001EB81020C4B03EB820042685268426071
:1023300000F108024368934202D142685268426049
:102340004268D268054B1A6000BF704774000020D5
:102350006000002054000020AC0000203C00002061
:1023600010B50A48006840F47F0008490860084634
:10237000006840F07F400860FFF7A8FE0020044995
:102380000860FDF7F1FE002010BD000020ED00E028
:10239000A400002010B50D480068401C0B490860DF
:1023A00000BFBF2080F31188BFF34F8FBFF36F8F43
:1023B00000BF00F0DBFA18B14FF08050044908600C
:1023C00000BF002080F3118800BF10BDA8000020CE
:1023D00004ED00E02DE9F0410446012600272246E5
:1023E0000021012000F007F805462846FFF7D4F940
:1023F0002846BDE8F0812DE9F84307460D46904692
:102400000DB9002601E007FB05F606F14800FFF7CD
:1024100087FC04464CB1A14609F1480943464A46A7
:10242000294638460094FFF7C6F92046BDE8F883F0
:1024300070B505460E462C46FFF706FED4E90F128E
:10244000206801FB0200A0600020A063206860609B
:10245000E06B401E226C216800FB0211E160FF204E
:1024600084F8440084F845009EB9206908B9012029
:1024700000E00020A8B904F1100000F0ABFB80B12F
:102480004FF0805009490860BFF34F8FBFF36F8F43
:1024900007E004F11000FFF7A1FD04F12400FFF7AD
:1024A0009DFDFFF7E3FD012070BD000004ED00E09D
:1024B0002DE9FF4383B0074688461D464FF00009CB
:1024C0003C4600BFFFF7C0FDA06BE16B884201D323
:1024D000022D28D12A4641462046FFF7C6F8064677
:1024E000606A08B9012000E0002068B904F1240006
:1024F00000F070FB88B14FF0805032490860BFF3A4
:102500004F8FBFF36F8F08E03EB14FF080502D49E1
:102510000860BFF34F8FBFF36F8FFFF7A7FD012058
:1025200007B0BDE8F083059818B9FFF79FFD0020BC
:10253000F6E7B9F1000F04D101A8FFF713FE4FF041
:102540000109FFF793FDFFF7D3FEFFF77DFD94F937
:102550004400401C10B9002084F8440094F9450060
:10256000401C10B9002084F84500FFF77FFD05A945
:1025700001A800F087F9F0B92046FFF706FAA0B1EC
:1025800004F110000599FFF7FFFD2046FFF789FBD6
:1025900000F060FB002895D14FF080500949086099
:1025A000BFF34F8FBFF36F8F8CE72046FFF779FBA8
:1025B00000F050FB86E72046FFF773FB00F04AFB74
:1025C0000020ADE704ED00E02DE9F05F05468A4606
:1025D00016461F462C4600BFBF21EFF3118081F342
:1025E0001188BFF34F8FBFF36F8F00BF8146A06B81
:1025F000E16B884201D3022F20D194F945B03A46CD
:1026000051462046FFF731F80BF1010070B9606ABE
:1026100008B9012000E0002068B904F1240000F0AE
:10262000D9FA40B13EB10120306004E00BF1010065
:1026300040B284F845004FF0010801E04FF0000877
:1026400000BF89F3118800BF4046BDE8F09F00003D
:102650002DE9F74183B005460F464FF000082C46A0
:1026600000BFFFF7F1FCA66BF6B139462046FEF736
:10267000E7FF701EA063206908B9012000E0002078
:1026800060B904F1100000F0A5FA38B14FF08050A5
:102690002F490860BFF34F8FBFF36F8FFFF7E6FC42
:1026A000012006B0BDE8F081059818B9FFF7DEFCFF
:1026B0000020F6E7B8F1000F04D101A8FFF752FDA2
:1026C0004FF00108FFF7D2FCFFF712FEFFF7BCFC4A
:1026D00094F94400401C10B9002084F8440094F997
:1026E0004500401C10B9002084F84500FFF7BEFCEF
:1026F00005A901A800F0C6F8F0B92046FFF738F99F
:10270000A0B104F124000599FFF73EFD2046FFF734
:10271000C8FA00F09FFA0028A3D14FF080500C496E
:102720000860BFF34F8FBFF36F8F9AE72046FFF724
:10273000B8FA00F08FFA94E72046FFF7B2FA00F0FB
:1027400089FA2046FFF714F900288AD00020A8E76C
:1027500004ED00E02DE9F34182B0054600272C4648
:10276000B84600BFFFF770FCA66BFEB1701EA063F9
:10277000206810B9FFF730FBA060206908B901207C
:1027800000E0002060B904F1100000F023FA38B135
:102790004FF080503A490860BFF34F8FBFF36F8FFF
:1027A000FFF764FC012004B0BDE8F081039818B97C
:1027B000FFF75CFC0020F6E71FB96846FFF7D2FC84
:1027C0000127FFF753FCFFF793FDFFF73DFC94F95A
:1027D0004400401C10B9002084F8440094F94500DE
:1027E000401C10B9002084F84500FFF73FFC03A906
:1027F000684600F047F840BB2046FFF7B9F8F0B153
:10280000206838B9FFF720FCA06800F07FF9804607
:10281000FFF72CFC04F124000399FFF7B5FC2046D8
:10282000FFF73FFA00F016FA00289BD14FF08050D6
:1028300013490860BFF34F8FBFF36F8F92E72046B5
:10284000FFF72FFA00F006FA8CE72046FFF729FA87
:1028500000F000FA2046FFF78BF8002882D0B8F18C
:10286000000F0BD0FFF7F0FB2046FEF746FF0646B1
:102870003146A068FFF7ACFCFFF7F8FB002092E7B9
:1028800004ED00E070B506460C46FFF7DDFB12488C
:1028900002687068131A2068401C08B9002517E008
:1028A0000E4930680968884204D07068904201D8A7
:1028B00001250DE02068984207D92068C01A2060E1
:1028C0003046FFF74FFC002502E000202060012584
:1028D000FFF7CCFB284670BD5000002064000020AC
:1028E0002DE9FF4F85B0804689461746DDE912ABDA
:1028F000B800FFF715FA064656B15420FFF710FA54
:1029000004460CB1266304E03046FFF7BFFB00E04D
:1029100000247CB10020CDE900ABCDE902403A466D
:1029200049464046089BFEF759FF2046FEF7E4FD66
:10293000012501E04FF0FF35284609B0BDE8F08FD2
:102940000549096809B9012005E00449096809B980
:10295000022000E000207047580000207400002092
:102960000149086870470000500000202DE9F0413F
:1029700000273A480068002863D139480068451CA0
:10298000374805608DB93748D0F800803648006870
:10299000344908603448C0F8008034480068401C5E
:1029A00032490860FFF7E6F800BF31480068854209
:1029B0003BD300BF2B480068006808B9012000E045
:1029C000002020B14FF0FF30294908602CE0254855
:1029D0000068C068C4686668B54202D224480660D0
:1029E00022E0201DFFF7D2FAA06A18B104F1180006
:1029F000FFF7CCFA94F82C10012088401D49096893
:102A000008431C490860E16A01EB81011A4A02EBA4
:102A10008100211DFFF70CFB1849E06A0968C96AAB
:102A20008842C7D30127C5E700BF14480068C06AC1
:102A300000EB8000104951F82000012800D901273F
:102A400004E00F480068401C0D4908600D4800680C
:102A500000B101273846BDE8F08100007400002075
:102A600050000020400000204400002064000020AE
:102A70006C00002054000020AC0000203C0000202E
:102A80005C0000206000002070B505462C46002642
:102A9000ADB3A06C401EA064616CE06A88422ED089
:102AA000A06C60BB201DFFF771FA78B9E06A00EBFB
:102AB0008000144951F8200040B994F82C100120EE
:102AC00088401149096881430F480160606CE062E9
:102AD000E06AC0F10500A06194F82C100120884044
:102AE00009490968084308490860E16A01EB810166
:102AF000044A02EB8100211DFFF79AFA01263046B5
:102B000070BD0000AC0000205400002070B50546E8
:102B10002C460026002D54D02B49E06A0968C96A6A
:102B2000884247D2A06900F0004028B926480068D2
:102B3000C06AC0F10500A061E16A01EB8101234A8E
:102B400002EB81016069884201D1012000E0002090
:102B500050B3201DFFF71AFA78B9E06A00EB800045
:102B60001A4951F8200040B994F82C1001208840EF
:102B70001749096881431648016013480068C06A14
:102B8000E06294F82C10012088401149096808433C
:102B90000F490860E16A01EB81010C4A02EB8100F8
:102BA000211DFFF745FA03E007480068C06AE062AC
:102BB000012606E00449606C0968C96A884200D2AF
:102BC0000126304670BD00003C000020AC00002013
:102BD0005400002070B50646F068C46804F118007F
:102BE000FFF7D4F915480068A8B9201DFFF7CEF902
:102BF00094F82C10012088401149096808431049B5
:102C00000860E16A01EB81010E4A02EB8100211D9F
:102C1000FFF70EFA04E004F118010B48FFF708FA79
:102C20000A49E06A0968C96A884204D90125012075
:102C30000749086000E00025284670BD74000020A8
:102C400054000020AC000020380100203C0000208F
:102C50006000002070B500240026FFF7F5F92E482B
:102C60000068401E2C4908600846006800284FD1C3
:102C70002A48006800284BD024E02948C068C4686E
:102C800004F11800FFF782F9201DFFF77FF994F88F
:102C90002C10012088402349096808432149086015
:102CA000E16A01EB8101204A02EB8100211DFFF75F
:102CB000BFF91E49E06A0968C96A884202D3012047
:102CC0001B4908601648006808B9012000E0002090
:102CD0000028D2D00CB1FEF74DFF1648056865B14B
:102CE00000BFFFF743FE10B10120114908606D1EBF
:102CF000002DF6D100200F4908600D48006838B15A
:102D0000012630070C490860BFF34F8FBFF36F8F68
:102D1000FFF7ACF9304670BD740000204C00002075
:102D20003801002054000020AC0000203C000020AE
:102D3000600000205C00002004ED00E02DE9FC476D
:102D400005460E4617469846DDF828902820FEF7DF
:102D5000E7FF044654B1002084F8240043463A4675
:102D600031462846CDE90094FEF785FD2046BDE8B2
:102D7000FC8700001CB50024FEF718FC074800681B
:102D800050B10748022100230A02CDE9001005A135
:102D90000648FFF7A5FD044620461CBD8000002024
:102DA00084000020546D722053766300891C000853
:102DB0002DE9FE4305460C4616461F46DDF82880E1
:102DC0004FF000091448006810B300940196029572
:102DD000062C15DAFFF7B4FD022808D1002342467D
:102DE00069460D480068FFF763FB814610E0002349
:102DF0001A46694608480068FFF75AFB814607E013
:102E000000233A46694604480068FFF7DDFB814627
:102E10004846BDE8FE83000080000020746573749E
:102E20003154696D65725F48616E646C6543616CB5
:102E30006C6261636B00636F6D5F66756E00446109
:102E400074615F73656D613100446174615F7365C6
:102E50006D613200446174615F73656D6133006D53
:102E600061696E5F4672656552546F730073464CBC
:102E70004153485F52656164494400009C2E00083C
:102E800000000020AC000000E0090008482F000806
:102E9000AC000020F4460000F0090008000000002B
:102EA0000000000000000000000000000000000022
:102EB0000000000000000000000000000000000012
:102EC00000000000000000000102030401020304EE
:102ED00006070809020406080000000000000000C0
:102EE00000000000000000000000000000000000E2
:102EF00000000000000000000000000000000000D2
:102F000000000000000000000000000000000000C1
:102F100000000000000000000000000000000000B1
:102F200000000000000000000000000000000000A1
:102F30000000000000000000F84300000000000056
:082F4000AAAAAAAA00000000E1
:0400000508000131BD
:00000001FF
